:100000000C9473000C9492000C9492000C94920047
:100010000C9492000C94BC010C9480010C9444014B
:100020000C9408010C9492000C9492000C94920091
:100030000C9492000C9492000C9492000C949400F6
:100040000C9492000C9492000C9492000C949200E8
:100050000C9492000C9492000C9492000C949200D8
:100060000C9492000C9492000C9492000C949200C8
:100070000C9492000C9492000C9492000C949200B8
:100080000C9492000C9492000C94920008000000D2
:10009000BE922449123EABAAAA2ABECDCCCC4C3E7D
:1000A00000000080BEABAAAAAA3E00000000BF006C
:1000B0000000803F0000000000084178D3BB438768
:1000C000D1133D190E3CC3BD4282AD2B3E68EC827C
:1000D00076BED98FE1A93E4C80EFFFBE01C4FF7F01
:1000E0003F000000000011241FBECFEFD0E1DEBFB3
:1000F000CDBF11E0A0E0B1E0E6E5F8E700E00BBF1E
:1001000002C007900D92AC34B107D9F721E0ACE4FE
:10011000B1E001C01D92A238B207E1F70E940D3490
:100120000C94293C0C9400001F920F9200905F00E9
:100130000F9211248F939F93CF93DF93CDB7DEB7A8
:1001400080914C0190914D01019690934D018093C7
:100150004C01DF91CF919F918F910F9000925F00A2
:100160000F901F901895CF93DF9300D0CDB7DEB7D7
:100170009A83898310924D0110924C010000809166
:100180004C0190914D0129813A8182179307B8F370
:100190000F900F90DF91CF910895CF93DF93CDB75C
:1001A000DEB783E590E027E0FC01208382E590E064
:1001B00026E0FC01208387E590E021E0FC0120831C
:1001C000DF91CF910895CF93DF93CDB7DEB783E56D
:1001D00090E02CE0FC01208387E590E022E0FC0128
:1001E000208382E590E0FC01108281E590E02AEF17
:1001F000FC012083DF91CF910895CF93DF93CDB79A
:10020000DEB782E290E0FC011082DF91CF91089589
:100210001F920F9200905F000F92112400905B00DC
:100220000F922F933F934F935F936F937F938F938F
:100230009F93AF93BF93EF93FF93CF93DF93CDB78C
:10024000DEB760E070E081E090E00E94AA100E94BA
:100250002C0880E091E00E943806DF91CF91FF9159
:10026000EF91BF91AF919F918F917F916F915F912E
:100270004F913F912F910F9000925B000F90009251
:100280005F000F901F9018951F920F9200905F00D3
:100290000F92112400905B000F922F933F934F9386
:1002A0005F936F937F938F939F93AF93BF93EF93DE
:1002B000FF93CF93DF93CDB7DEB760E070E081E0CE
:1002C00090E00E94AA100E942C0881E191E00E9417
:1002D0003806DF91CF91FF91EF91BF91AF919F9140
:1002E0008F917F916F915F914F913F912F910F90DF
:1002F00000925B000F9000925F000F901F90189586
:100300001F920F9200905F000F92112400905B00EB
:100310000F922F933F934F935F936F937F938F939E
:100320009F93AF93BF93EF93FF93CF93DF93CDB79B
:10033000DEB760E070E081E090E00E94AA100E94C9
:100340002C0882E291E00E943806DF91CF91FF9164
:10035000EF91BF91AF919F918F917F916F915F913D
:100360004F913F912F910F9000925B000F90009260
:100370005F000F901F9018951F920F9200905F00E2
:100380000F92112400905B000F922F933F934F9395
:100390005F936F937F938F939F93AF93BF93EF93ED
:1003A000FF93CF93DF93CDB7DEB760E070E081E0DD
:1003B00090E00E94AA100E942C0883E391E00E9422
:1003C0003806DF91CF91FF91EF91BF91AF919F914F
:1003D0008F917F916F915F914F913F912F910F90EE
:1003E00000925B000F9000925F000F901F90189595
:1003F000CF93DF93CDB7DEB789E590E020EFFC0126
:1004000020838AE590E02FEFFC012083DF91CF91DC
:100410000895CF93DF93CDB7DEB78AE390E02FEF57
:10042000FC01208384E390E02FE0FC012083DF9136
:10043000CF910895CF93DF93CDB7DEB78AE390E0F5
:10044000FC01108284E390E02FE0FC012083DF9127
:10045000CF9108950F931F93CF93DF93CDB7DEB75E
:10046000E1970FB6F894DEBF0FBECDBF89AB85E331
:1004700090E025E330E0F90120812460FC01208335
:1004800085E390E025E330E0F90120812D7FFC0138
:10049000208385E390E025E330E0F90120812E7F81
:1004A000FC01208380E090E0A8E4B2E489839A8391
:1004B000AB83BC832BEA3AEA4AEA50E469817A8149
:1004C0008B819C810E942D36DC01CB018D839E8324
:1004D000AF83B88720E030E040E85FE36D817E8144
:1004E0008F8198850E94133888231CF481E08987C6
:1004F00097C020E030E04FE753E46D817E818F812B
:1005000098850E94B53718160CF081C020E030E0C5
:100510004AE754E469817A818B819C810E94123779
:10052000DC01CB018A879B87AC87BD8720E030E068
:100530004AE755E46A857B858C859D850E942D362A
:10054000DC01CB018E879F87A88BB98B20E030E040
:1005500040E85FE36E857F85888999890E9413381A
:1005600088232CF481E090E09B8B8A8B42C020E0B2
:100570003FEF4FE757E46E857F85888999890E9410
:10058000B537181664F520E030E040E251E46A85A2
:100590007B858C859D850E942D36DC01CB01BC01BD
:1005A000CD010E944834DC01CB019B8B8A8B12C0A9
:1005B00080E991E09D8B8C8B8C899D898C01C80191
:1005C0000197F1F78C011D8B0C8B8A899B89019710
:1005D0009B8B8A8B8A899B89009751F728C06E85EF
:1005E0007F85888999890E944834DC01CB019B8BE7
:1005F0008A8B8A899B899F8B8E8B8E899F898C01A0
:10060000F8013197F1F78F011F8B0E8B10C06D81B0
:100610007E818F8198850E944834DC01CB018987D7
:100620008985888F888D182F1A95F1F7188F8BE39D
:1006300090E029A9FC01208380E090E0A8E4B2E4E6
:10064000898F9A8FAB8FBC8F2BEA3AEA4AEA50E443
:10065000698D7A8D8B8D9C8D0E942D36DC01CB01AE
:100660008D8F9E8FAF8FB8A320E030E040E85FE32E
:100670006D8D7E8D8F8D98A10E94133888231CF478
:1006800081E089A397C020E030E04FE753E46D8D0F
:100690007E8D8F8D98A10E94B53718160CF081C001
:1006A00020E030E04AE754E4698D7A8D8B8D9C8D93
:1006B0000E941237DC01CB018AA39BA3ACA3BDA38C
:1006C00020E030E04AE755E46AA17BA18CA19DA11E
:1006D0000E942D36DC01CB018EA39FA3A8A7B9A74A
:1006E00020E030E040E85FE36EA17FA188A599A5F6
:1006F0000E94133888232CF481E090E09BA78AA7FE
:1007000042C020E03FEF4FE757E46EA17FA188A5EC
:1007100099A50E94B537181664F520E030E040E254
:1007200051E46AA17BA18CA19DA10E942D36DC0120
:10073000CB01BC01CD010E944834DC01CB019BA759
:100740008AA712C080E991E09DA78CA78CA59DA5E2
:100750008C01C8010197F1F78C011DA70CA78AA590
:100760009BA501979BA78AA78AA59BA5009751F7F0
:1007700028C06EA17FA188A599A50E944834DC01FC
:10078000CB019BA78AA78AA59BA59FA78EA78EA50D
:100790009FA58C01F8013197F1F78F011FA70EA7D4
:1007A00010C06D8D7E8D8F8D98A10E944834DC0124
:1007B000CB0189A389A188AB88A9182F1A95F1F7D5
:1007C00018AB85E390E025E330E0F90120812B7F31
:1007D000FC012083E1960FB6F894DEBF0FBECDBFBB
:1007E000DF91CF911F910F9108950F931F93CF9396
:1007F000DF93CDB7DEB7EF970FB6F894DEBF0FBE2D
:10080000CDBF8FAF85E390E025E330E0F901208193
:100810002460FC01208385E390E025E330E0F901CA
:1008200020812D7FFC01208385E390E025E330E0EB
:10083000F90120812160FC01208380E090E0A8E4A0
:10084000B2E489839A83AB83BC832BEA3AEA4AEA0F
:1008500050E469817A818B819C810E942D36DC0174
:10086000CB018D839E83AF83B88720E030E040E8E2
:100870005FE36D817E818F8198850E941338882384
:100880001CF481E0898797C020E030E04FE753E413
:100890006D817E818F8198850E94B53718160CF086
:1008A00081C020E030E04AE754E469817A818B819D
:1008B0009C810E941237DC01CB018A879B87AC8721
:1008C000BD8720E030E04AE755E46A857B858C856A
:1008D0009D850E942D36DC01CB018E879F87A88BDA
:1008E000B98B20E030E040E85FE36E857F85888942
:1008F00099890E94133888232CF481E090E09B8B27
:100900008A8B42C020E03FEF4FE757E46E857F853A
:10091000888999890E94B537181664F520E030E07F
:1009200040E251E46A857B858C859D850E942D3649
:10093000DC01CB01BC01CD010E944834DC01CB01BC
:100940009B8B8A8B12C080E991E09D8B8C8B8C896C
:100950009D898C01C8010197F1F78C011D8B0C8BCF
:100960008A899B8901979B8B8A8B8A899B890097AF
:1009700051F728C06E857F85888999890E944834FF
:10098000DC01CB019B8B8A8B8A899B899F8B8E8B09
:100990008E899F898C01F8013197F1F78F011F8BA8
:1009A0000E8B10C06D817E818F8198850E944834A6
:1009B000DC01CB0189878985888F888D182F1A954E
:1009C000F1F7188F8BE390E02FADFC01208380E0DE
:1009D00090E0A8E4B2E4898F9A8FAB8FBC8F2BEAAA
:1009E0003AEA4AEA50E4698D7A8D8B8D9C8D0E949B
:1009F0002D36DC01CB018D8F9E8FAF8FB8A320E009
:100A000030E040E85FE36D8D7E8D8F8D98A10E9470
:100A1000133888231CF481E089A397C020E030E0DC
:100A20004FE753E46D8D7E8D8F8D98A10E94B53771
:100A300018160CF081C020E030E04AE754E4698DDC
:100A40007A8D8B8D9C8D0E941237DC01CB018AA39D
:100A50009BA3ACA3BDA320E030E04AE755E46AA124
:100A60007BA18CA19DA10E942D36DC01CB018EA320
:100A70009FA3A8A7B9A720E030E040E85FE36EA1FC
:100A80007FA188A599A50E94133888232CF481E0C2
:100A900090E09BA78AA742C020E03FEF4FE757E4D2
:100AA0006EA17FA188A599A50E94B537181664F597
:100AB00020E030E040E251E46AA17BA18CA19DA13D
:100AC0000E942D36DC01CB01BC01CD010E944834CF
:100AD000DC01CB019BA78AA712C080E991E09DA70A
:100AE0008CA78CA59DA58C01C8010197F1F78C01FD
:100AF0001DA70CA78AA59BA501979BA78AA78AA5D6
:100B00009BA5009751F728C06EA17FA188A599A544
:100B10000E944834DC01CB019BA78AA78AA59BA52C
:100B20009FA78EA78EA59FA58C01F8013197F1F79D
:100B30008F011FA70EA710C06D8D7E8D8F8D98A180
:100B40000E944834DC01CB0189A389A188AB88A924
:100B5000182F1A95F1F718AB85E390E025E330E004
:100B6000F90120812B7FFC01208380E090E0A0E848
:100B7000BFE389AB9AABABABBCAB20E030E04AE75C
:100B800055E469A97AA98BA99CA90E942D36DC019C
:100B9000CB018DAB9EABAFABB8AF20E030E040E80F
:100BA0005FE36DA97EA98FA998AD0E9413388823B1
:100BB0002CF481E090E09AAF89AF42C020E03FEF93
:100BC0004FE757E46DA97EA98FA998AD0E94B5376C
:100BD000181664F520E030E040E251E469A97AA9F2
:100BE0008BA99CA90E942D36DC01CB01BC01CD0153
:100BF0000E944834DC01CB019AAF89AF12C080E972
:100C000091E09CAF8BAF8BAD9CAD8C01C80101977F
:100C1000F1F78C011CAF0BAF89AD9AAD01979AAF7C
:100C200089AF89AD9AAD009751F717C06DA97EA91C
:100C30008FA998AD0E944834DC01CB019AAF89AFEF
:100C400089AD9AAD9EAF8DAF8DAD9EAD8C01F80193
:100C50003197F1F78F011EAF0DAFEF960FB6F894F5
:100C6000DEBF0FBECDBFDF91CF911F910F910895D1
:100C7000CF93DF9300D01F92CDB7DEB79B838A83DB
:100C800019820EC08981882F90E02A813B81820FD2
:100C9000931FFC0180810E94F50389818F5F898306
:100CA0008981882F90E02A813B81820F931FFC016C
:100CB0008081882339F70F900F900F90DF91CF91AB
:100CC00008950F931F93CF93DF93CDB7DEB7E197CE
:100CD0000FB6F894DEBF0FBECDBF85E390E025E3ED
:100CE00030E0F90120812460FC01208385E390E05D
:100CF00025E330E0F90120812260FC01208385E3B7
:100D000090E025E330E0F90120812E7FFC01208373
:100D100080E090E0A8E4B2E48A839B83AC83BD8347
:100D20002BEA3AEA4AEA50E46A817B818C819D8110
:100D30000E942D36DC01CB018E839F83A887B98763
:100D400020E030E040E85FE36E817F81888599850F
:100D50000E94133888231CF481E08A8797C020E022
:100D600030E04FE753E46E817F81888599850E944A
:100D7000B53718160CF081C020E030E04AE754E4A3
:100D80006A817B818C819D810E941237DC01CB01BD
:100D90008B879C87AD87BE8720E030E04AE755E42B
:100DA0006B857C858D859E850E942D36DC01CB016F
:100DB0008F87988BA98BBA8B20E030E040E85FE307
:100DC0006F85788989899A890E94133888232CF441
:100DD00081E090E09C8B8B8B42C020E03FEF4FE79F
:100DE00057E46F85788989899A890E94B5371816E2
:100DF00064F520E030E040E251E46B857C858D8530
:100E00009E850E942D36DC01CB01BC01CD010E94E4
:100E10004834DC01CB019C8B8B8B12C080E991E0C4
:100E20009E8B8D8B8D899E898C01C8010197F1F76E
:100E30008C011E8B0D8B8B899C8901979C8B8B8BD6
:100E40008B899C89009751F728C06F85788989899B
:100E50009A890E944834DC01CB019C8B8B8B8B8957
:100E60009C89988F8F8B8F89988D8C01F801319791
:100E7000F1F78F01188F0F8B10C06E817F818885ED
:100E800099850E944834DC01CB018A878A85898F45
:100E9000898D182F1A95F1F7198F89E390E0FC01DD
:100EA0008081898380E090E0A8E4B2E48A8F9B8F00
:100EB000AC8FBD8F2BEA3AEA4AEA50E46A8D7B8D0B
:100EC0008C8D9D8D0E942D36DC01CB018E8F9F8FE6
:100ED000A8A3B9A320E030E040E85FE36E8D7F8DEA
:100EE00088A199A10E94133888231CF481E08AA369
:100EF00097C020E030E04FE753E46E8D7F8D88A1EE
:100F000099A10E94B53718160CF081C020E030E09E
:100F10004AE754E46A8D7B8D8C8D9D8D0E9412373B
:100F2000DC01CB018BA39CA3ADA3BEA320E030E0EA
:100F30004AE755E46BA17CA18DA19EA10E942D36AC
:100F4000DC01CB018FA398A7A9A7BAA720E030E0C6
:100F500040E85FE36FA178A589A59AA50E941338A0
:100F600088232CF481E090E09CA78BA742C020E06E
:100F70003FEF4FE757E46FA178A589A59AA50E9496
:100F8000B537181664F520E030E040E251E46BA17B
:100F90007CA18DA19EA10E942D36DC01CB01BC015C
:100FA000CD010E944834DC01CB019CA78BA712C065
:100FB00080E991E09EA78DA78DA59EA58C01C80113
:100FC0000197F1F78C011EA70DA78BA59CA5019792
:100FD0009CA78BA78BA59CA5009751F728C06FA154
:100FE00078A589A59AA50E944834DC01CB019CA76D
:100FF0008BA78BA59CA598AB8FA78FA598A98C01D3
:10100000F8013197F1F78F0118AB0FA710C06E8D63
:101010007F8D88A199A10E944834DC01CB018AA36D
:101020008AA189AB89A9182F1A95F1F719AB85E325
:1010300090E025E330E0F90120812B7FFC01208343
:101040008981E1960FB6F894DEBF0FBECDBFDF9168
:10105000CF911F910F910895CF93DF93CDB7DEB756
:101060000E941A0200000E9461068823E4F30E9495
:101070000902DF91CF9108950F931F93CF93DF93D0
:10108000CDB7DEB7E1970FB6F894DEBF0FBECDBF88
:1010900085E390E025E330E0F90120812460FC0144
:1010A000208385E390E025E330E0F9012081226090
:1010B000FC01208385E390E025E330E0F901208105
:1010C0002160FC01208380E090E0A8E4B2E48A8300
:1010D0009B83AC83BD832BEA3AEA4AEA50E46A81F7
:1010E0007B818C819D810E942D36DC01CB018E831A
:1010F0009F83A887B98720E030E040E85FE36E81F6
:101100007F81888599850E94133888231CF481E0AB
:101110008A8797C020E030E04FE753E46E817F81FB
:10112000888599850E94B53718160CF081C020E09B
:1011300030E04AE754E46A817B818C819D810E9482
:101140001237DC01CB018B879C87AD87BE8720E0FF
:1011500030E04AE755E46B857C858D859E850E944D
:101160002D36DC01CB018F87988BA98BBA8B20E0C1
:1011700030E040E85FE36F85788989899A890E9429
:10118000133888232CF481E090E09C8B8B8B42C039
:1011900020E03FEF4FE757E46F85788989899A8986
:1011A0000E94B537181664F520E030E040E251E4C3
:1011B0006B857C858D859E850E942D36DC01CB015B
:1011C000BC01CD010E944834DC01CB019C8B8B8B90
:1011D00012C080E991E09E8B8D8B8D899E898C0158
:1011E000C8010197F1F78C011E8B0D8B8B899C89AF
:1011F00001979C8B8B8B8B899C89009751F728C01A
:101200006F85788989899A890E944834DC01CB01ED
:101210009C8B8B8B8B899C89988F8F8B8F89988DDA
:101220008C01F8013197F1F78F01188F0F8B10C0E7
:101230006E817F81888599850E944834DC01CB01CD
:101240008A878A85898F898D182F1A95F1F7198FCA
:1012500089E390E0FC018081898380E090E0A8E44C
:10126000B2E48A8F9B8FAC8FBD8F2BEA3AEA4AEAB1
:1012700050E46A8D7B8D8C8D9D8D0E942D36DC0116
:10128000CB018E8F9F8FA8A3B9A320E030E040E868
:101290005FE36E8D7F8D88A199A10E94133888230A
:1012A0001CF481E08AA397C020E030E04FE753E4CC
:1012B0006E8D7F8D88A199A10E94B53718160CF00C
:1012C00081C020E030E04AE754E46A8D7B8D8C8D4C
:1012D0009D8D0E941237DC01CB018BA39CA3ADA393
:1012E000BEA320E030E04AE755E46BA17CA18DA1CC
:1012F0009EA10E942D36DC01CB018FA398A7A9A740
:10130000BAA720E030E040E85FE36FA178A589A5A7
:101310009AA50E94133888232CF481E090E09CA7C2
:101320008BA742C020E03FEF4FE757E46FA178A5BD
:1013300089A59AA50E94B537181664F520E030E01B
:1013400040E251E46BA17CA18DA19EA10E942D36AB
:10135000DC01CB01BC01CD010E944834DC01CB0192
:101360009CA78BA712C080E991E09EA78DA78DA5B1
:101370009EA58C01C8010197F1F78C011EA70DA74E
:101380008BA59CA501979CA78BA78BA59CA50097D7
:1013900051F728C06FA178A589A59AA50E94483465
:1013A000DC01CB019CA78BA78BA59CA598AB8FA735
:1013B0008FA598A98C01F8013197F1F78F0118AB2F
:1013C0000FA710C06E8D7F8D88A199A10E9448340F
:1013D000DC01CB018AA38AA189AB89A9182F1A95B0
:1013E000F1F719AB85E390E025E330E0F9012081C6
:1013F0002B7FFC0120838981E1960FB6F894DEBF34
:101400000FBECDBFDF91CF911F910F9108950F9324
:101410001F93CF93DF93CDB7DEB768970FB6F894DD
:10142000DEBF0FBECDBF81E00E942A0280E090E0C7
:10143000A0E0B0E489839A83AB83BC832BEA3AEAC9
:101440004AEA50E469817A818B819C810E942D3621
:10145000DC01CB018D839E83AF83B88720E030E031
:1014600040E85FE36D817E818F8198850E9413380B
:1014700088231CF481E0898797C020E030E04FE7A3
:1014800053E46D817E818F8198850E94B53718164F
:101490000CF081C020E030E04AE754E469817A81B1
:1014A0008B819C810E941237DC01CB018A879B874C
:1014B000AC87BD8720E030E04AE755E46A857B854C
:1014C0008C859D850E942D36DC01CB018E879F8700
:1014D000A88BB98B20E030E040E85FE36E857F8524
:1014E000888999890E94133888232CF481E090E040
:1014F0009B8B8A8B42C020E03FEF4FE757E46E851D
:101500007F85888999890E94B537181664F520E08F
:1015100030E040E251E46A857B858C859D850E94A0
:101520002D36DC01CB01BC01CD010E944834DC0129
:10153000CB019B8B8A8B12C080E991E09D8B8C8BB9
:101540008C899D898C01C8010197F1F78C011D8B55
:101550000C8B8A899B8901979B8B8A8B8A899B89B3
:10156000009751F728C06E857F85888999890E94E8
:101570004834DC01CB019B8B8A8B8A899B899F8BAA
:101580008E8B8E899F898C01C8010197F1F78C01A0
:101590001F8B0E8B10C06D817E818F8198850E947C
:1015A0004834DC01CB0189878985888F888D182F85
:1015B0001A95F1F7188F68960FB6F894DEBF0FBE34
:1015C000CDBFDF91CF911F910F9108950F931F937E
:1015D000CF93DF93CDB7DEB768970FB6F894DEBF31
:1015E0000FBECDBF82E00E942A0280E090E0A0E022
:1015F000B0E489839A83AB83BC832BEA3AEA4AEA54
:1016000050E469817A818B819C810E942D36DC01B6
:10161000CB018D839E83AF83B88720E030E040E824
:101620005FE36D817E818F8198850E9413388823C6
:101630001CF481E0898797C020E030E04FE753E455
:101640006D817E818F8198850E94B53718160CF0C8
:1016500081C020E030E04AE754E469817A818B81DF
:101660009C810E941237DC01CB018A879B87AC8763
:10167000BD8720E030E04AE755E46A857B858C85AC
:101680009D850E942D36DC01CB018E879F87A88B1C
:10169000B98B20E030E040E85FE36E857F85888984
:1016A00099890E94133888232CF481E090E09B8B69
:1016B0008A8B42C020E03FEF4FE757E46E857F857D
:1016C000888999890E94B537181664F520E030E0C2
:1016D00040E251E46A857B858C859D850E942D368C
:1016E000DC01CB01BC01CD010E944834DC01CB01FF
:1016F0009B8B8A8B12C080E991E09D8B8C8B8C89AF
:101700009D898C01C8010197F1F78C011D8B0C8B11
:101710008A899B8901979B8B8A8B8A899B890097F1
:1017200051F728C06E857F85888999890E94483441
:10173000DC01CB019B8B8A8B8A899B899F8B8E8B4B
:101740008E899F898C01C8010197F1F78C011F8B4D
:101750000E8B10C06D817E818F8198850E944834E8
:10176000DC01CB0189878985888F888D182F1A9590
:10177000F1F7188F68960FB6F894DEBF0FBECDBF95
:10178000DF91CF911F910F9108950F931F93CF93E6
:10179000DF93CDB7DEB72E970FB6F894DEBF0FBE3E
:1017A000CDBF8CE10E942A0280E090E0A0E0B0E48E
:1017B00089839A83AB83BC8320E030E04AE755E419
:1017C00069817A818B819C810E942D36DC01CB015D
:1017D0008D839E83AF83B88720E030E040E85FE3ED
:1017E0006D817E818F8198850E94133888232CF427
:1017F00081E090E09A87898742C020E03FEF4FE781
:1018000057E46D817E818F8198850E94B5371816C7
:1018100064F520E030E040E251E469817A818B8117
:101820009C810E942D36DC01CB01BC01CD010E94C0
:101830004834DC01CB019A87898712C080E991E0A6
:101840009C878B878B859C858C01C8010197F1F75C
:101850008C011C870B8789859A8501979A878987D0
:1018600089859A85009751F717C06D817E818F8198
:1018700098850E944834DC01CB019A878987898545
:101880009A859E878D878D859E858C01C8010197DD
:10189000F1F78C011E870D872E960FB6F894DEBFE8
:1018A0000FBECDBFDF91CF911F910F9108950F9380
:1018B0001F93CF93DF93CDB7DEB72E970FB6F89473
:1018C000DEBF0FBECDBF88E10E942A0280E090E01B
:1018D000A0E0B0E489839A83AB83BC8320E030E04E
:1018E0004AE755E469817A818B819C810E942D367B
:1018F000DC01CB018D839E83AF83B88720E030E08D
:1019000040E85FE36D817E818F8198850E94133866
:1019100088232CF481E090E09A87898742C020E0F8
:101920003FEF4FE757E46D817E818F8198850E945C
:10193000B537181664F520E030E040E251E46981E3
:101940007A818B819C810E942D36DC01CB01BC0108
:10195000CD010E944834DC01CB019A87898712C0EF
:1019600080E991E09C878B878B859C858C01C801E1
:101970000197F1F78C011C870B8789859A85019760
:101980009A87898789859A85009751F717C06D8155
:101990007E818F8198850E944834DC01CB019A8733
:1019A000898789859A859E878D878D859E858C01FF
:1019B000C8010197F1F78C011E870D872E960FB68F
:1019C000F894DEBF0FBECDBFDF91CF911F910F9175
:1019D00008950F931F93CF93DF93CDB7DEB72E9764
:1019E0000FB6F894DEBF0FBECDBF84E10E942A027D
:1019F00080E090E0A0E0B0E489839A83AB83BC836D
:101A000020E030E04AE755E469817A818B819C814E
:101A10000E942D36DC01CB018D839E83AF83B88776
:101A200020E030E040E85FE36D817E818F81988522
:101A30000E94133888232CF481E090E09A878987EC
:101A400042C020E03FEF4FE757E46D817E818F81F8
:101A500098850E94B537181664F520E030E040E222
:101A600051E469817A818B819C810E942D36DC0151
:101A7000CB01BC01CD010E944834DC01CB019A8727
:101A8000898712C080E991E09C878B878B859C8534
:101A90008C01C8010197F1F78C011C870B878985A0
:101AA0009A8501979A87898789859A85009751F742
:101AB00017C06D817E818F8198850E944834DC013A
:101AC000CB019A87898789859A859E878D878D85A1
:101AD0009E858C01C8010197F1F78C011E870D8747
:101AE0002E960FB6F894DEBF0FBECDBFDF91CF911B
:101AF0001F910F9108950F931F93CF93DF93CDB74D
:101B0000DEB72E970FB6F894DEBF0FBECDBF80E1D3
:101B10000E942A0280E090E0A0E0B0E489839A83EA
:101B2000AB83BC8320E030E04AE755E469817A81E9
:101B30008B819C810E942D36DC01CB018D839E839D
:101B4000AF83B88720E030E040E85FE36D817E81BD
:101B50008F8198850E94133888232CF481E090E0CF
:101B60009A87898742C020E03FEF4FE757E46D81B5
:101B70007E818F8198850E94B537181664F520E024
:101B800030E040E251E469817A818B819C810E943E
:101B90002D36DC01CB01BC01CD010E944834DC01B3
:101BA000CB019A87898712C080E991E09C878B8757
:101BB0008B859C858C01C8010197F1F78C011C87EE
:101BC0000B8789859A8501979A87898789859A8560
:101BD000009751F717C06D817E818F8198850E9493
:101BE0004834DC01CB019A87898789859A859E874D
:101BF0008D878D859E858C01C8010197F1F78C0139
:101C00001E870D872E960FB6F894DEBF0FBECDBF90
:101C1000DF91CF911F910F9108950F931F93CF9351
:101C2000DF93CDB7DEB768970FB6F894DEBF0FBE6F
:101C3000CDBF87E00E942A0280E090E0A0E0B0E4FF
:101C400089839A83AB83BC832BEA3AEA4AEA50E45D
:101C500069817A818B819C810E942D36DC01CB01C8
:101C60008D839E83AF83B88720E030E040E85FE358
:101C70006D817E818F8198850E94133888231CF4A2
:101C800081E0898797C020E030E04FE753E46D8121
:101C90007E818F8198850E94B53718160CF081C01F
:101CA00020E030E04AE754E469817A818B819C81AD
:101CB0000E941237DC01CB018A879B87AC87BD87E6
:101CC00020E030E04AE755E46A857B858C859D8578
:101CD0000E942D36DC01CB018E879F87A88BB98BA4
:101CE00020E030E040E85FE36E857F858889998950
:101CF0000E94133888232CF481E090E09B8B8A8B20
:101D000042C020E03FEF4FE757E46E857F8588892A
:101D100099890E94B537181664F520E030E040E25A
:101D200051E46A857B858C859D850E942D36DC017A
:101D3000CB01BC01CD010E944834DC01CB019B8B5F
:101D40008A8B12C080E991E09D8B8C8B8C899D8958
:101D50008C01C8010197F1F78C011D8B0C8B8A89CE
:101D60009B8901979B8B8A8B8A899B89009751F766
:101D700028C06E857F85888999890E944834DC0156
:101D8000CB019B8B8A8B8A899B899F8B8E8B8E89BB
:101D90009F898C01C8010197F1F78C011F8B0E8B75
:101DA00010C06D817E818F8198850E944834DC014E
:101DB000CB0189878985888F888D182F1A95F1F72F
:101DC000188F68960FB6F894DEBF0FBECDBFDF91B7
:101DD000CF911F910F9108950F931F93CF93DF938E
:101DE000CDB7DEB768970FB6F894DEBF0FBECDBF94
:101DF00084E00E942A0280E090E0A0E0B0E48983C1
:101E00009A83AB83BC832BEA3AEA4AEA50E46981BD
:101E10007A818B819C810E942D36DC01CB018D83E0
:101E20009E83AF83B88720E030E040E85FE36D81B8
:101E30007E818F8198850E94133888231CF481E06D
:101E4000898797C020E030E04FE753E46D817E81C1
:101E50008F8198850E94B53718160CF081C020E05C
:101E600030E04AE754E469817A818B819C810E9449
:101E70001237DC01CB018A879B87AC87BD8720E0C6
:101E800030E04AE755E46A857B858C859D850E9414
:101E90002D36DC01CB018E879F87A88BB98B20E084
:101EA00030E040E85FE36E857F85888999890E94EC
:101EB000133888232CF481E090E09B8B8A8B42C0FE
:101EC00020E03FEF4FE757E46E857F858889998949
:101ED0000E94B537181664F520E030E040E251E486
:101EE0006A857B858C859D850E942D36DC01CB0122
:101EF000BC01CD010E944834DC01CB019B8B8A8B55
:101F000012C080E991E09D8B8C8B8C899D898C011E
:101F1000C8010197F1F78C011D8B0C8B8A899B8975
:101F200001979B8B8A8B8A899B89009751F728C0E0
:101F30006E857F85888999890E944834DC01CB01B0
:101F40009B8B8A8B8A899B899F8B8E8B8E899F899D
:101F50008C01C8010197F1F78C011F8B0E8B10C00B
:101F60006D817E818F8198850E944834DC01CB0190
:101F700089878985888F888D182F1A95F1F7188F92
:101F800068960FB6F894DEBF0FBECDBFDF91CF913C
:101F90001F910F9108950F931F93CF93DF93CDB7A8
:101FA000DEB768970FB6F894DEBF0FBECDBF86E0F0
:101FB0000E942A0280E090E0A0E0B0E489839A8346
:101FC000AB83BC832BEA3AEA4AEA50E469817A811E
:101FD0008B819C810E942D36DC01CB018D839E83F9
:101FE000AF83B88720E030E040E85FE36D817E8119
:101FF0008F8198850E94133888231CF481E089879B
:1020000097C020E030E04FE753E46D817E818F81FF
:1020100098850E94B53718160CF081C020E030E09A
:102020004AE754E469817A818B819C810E9412374E
:10203000DC01CB018A879B87AC87BD8720E030E03D
:102040004AE755E46A857B858C859D850E942D36FF
:10205000DC01CB018E879F87A88BB98B20E030E015
:1020600040E85FE36E857F85888999890E941338EF
:1020700088232CF481E090E09B8B8A8B42C020E087
:102080003FEF4FE757E46E857F85888999890E94E5
:10209000B537181664F520E030E040E251E46A8577
:1020A0007B858C859D850E942D36DC01CB01BC0192
:1020B000CD010E944834DC01CB019B8B8A8B12C07E
:1020C00080E991E09D8B8C8B8C899D898C01C80166
:1020D0000197F1F78C011D8B0C8B8A899B890197E5
:1020E0009B8B8A8B8A899B89009751F728C06E85C4
:1020F0007F85888999890E944834DC01CB019B8BBC
:102100008A8B8A899B899F8B8E8B8E899F898C0174
:10211000C8010197F1F78C011F8B0E8B10C06D81E8
:102120007E818F8198850E944834DC01CB018987AC
:102130008985888F888D182F1A95F1F7188F6896E2
:102140000FB6F894DEBF0FBECDBFDF91CF911F91C8
:102150000F9108950F931F93CF93DF93CDB7DEB701
:1021600061970FB6F894DEBF0FBECDBF888B698B29
:102170008889882319F48989898308C088898130EE
:1021800021F48989805C898301C0198289818068F2
:102190000E942A0280E090E0A0E0B0E48A839B8362
:1021A000AC83BD8320E030E04AE755E46A817B815F
:1021B0008C819D810E942D36DC01CB018E839F8313
:1021C000A887B98720E030E040E85FE36E817F8137
:1021D000888599850E94133888232CF481E090E04B
:1021E0009B878A8742C020E03FEF4FE757E46E812C
:1021F0007F81888599850E94B537181664F520E09F
:1022000030E040E251E46A817B818C819D810E94B3
:102210002D36DC01CB01BC01CD010E944834DC012C
:10222000CB019B878A8712C080E991E09D878C87CC
:102230008C859D858C01C8010197F1F78C011D8764
:102240000C878A859B8501979B878A878A859B85D2
:10225000009751F717C06E817F81888599850E940C
:102260004834DC01CB019B878A878A859B859F87C1
:102270008E878E859F858C01C8010197F1F78C01AF
:102280001F870E8761960FB6F894DEBF0FBECDBFD5
:10229000DF91CF911F910F9108950F931F93CF93CB
:1022A000DF93CDB7DEB72E970FB6F894DEBF0FBE23
:1022B000CDBF80E40E942A0280E090E0A0E0B0E47C
:1022C00089839A83AB83BC8320E030E04AE755E4FE
:1022D00069817A818B819C810E942D36DC01CB0142
:1022E0008D839E83AF83B88720E030E040E85FE3D2
:1022F0006D817E818F8198850E94133888232CF40C
:1023000081E090E09A87898742C020E03FEF4FE765
:1023100057E46D817E818F8198850E94B5371816AC
:1023200064F520E030E040E251E469817A818B81FC
:102330009C810E942D36DC01CB01BC01CD010E94A5
:102340004834DC01CB019A87898712C080E991E08B
:102350009C878B878B859C858C01C8010197F1F741
:102360008C011C870B8789859A8501979A878987B5
:1023700089859A85009751F717C06D817E818F817D
:1023800098850E944834DC01CB019A87898789852A
:102390009A859E878D878D859E858C01C8010197C2
:1023A000F1F78C011E870D872E960FB6F894DEBFCD
:1023B0000FBECDBFDF91CF911F910F9108950F9365
:1023C0001F93CF93DF93CDB7DEB72E970FB6F89458
:1023D000DEBF0FBECDBF80E80E942A0280E090E001
:1023E000A0E0B0E489839A83AB83BC8320E030E033
:1023F0004AE755E469817A818B819C810E942D3660
:10240000DC01CB018D839E83AF83B88720E030E071
:1024100040E85FE36D817E818F8198850E9413384B
:1024200088232CF481E090E09A87898742C020E0DD
:102430003FEF4FE757E46D817E818F8198850E9441
:10244000B537181664F520E030E040E251E46981C8
:102450007A818B819C810E942D36DC01CB01BC01ED
:10246000CD010E944834DC01CB019A87898712C0D4
:1024700080E991E09C878B878B859C858C01C801C6
:102480000197F1F78C011C870B8789859A85019745
:102490009A87898789859A85009751F717C06D813A
:1024A0007E818F8198850E944834DC01CB019A8718
:1024B000898789859A859E878D878D859E858C01E4
:1024C000C8010197F1F78C011E870D872E960FB674
:1024D000F894DEBF0FBECDBFDF91CF911F910F915A
:1024E00008950F931F93CF93DF93CDB7DEB72E9749
:1024F0000FB6F894DEBF0FBECDBF84E30E942A0260
:1025000080E090E0A0E0B0E489839A83AB83BC8351
:1025100020E030E04AE755E469817A818B819C8133
:102520000E942D36DC01CB018D839E83AF83B8875B
:1025300020E030E040E85FE36D817E818F81988507
:102540000E94133888232CF481E090E09A878987D1
:1025500042C020E03FEF4FE757E46D817E818F81DD
:1025600098850E94B537181664F520E030E040E207
:1025700051E469817A818B819C810E942D36DC0136
:10258000CB01BC01CD010E944834DC01CB019A870C
:10259000898712C080E991E09C878B878B859C8519
:1025A0008C01C8010197F1F78C011C870B87898585
:1025B0009A8501979A87898789859A85009751F727
:1025C00017C06D817E818F8198850E944834DC011F
:1025D000CB019A87898789859A859E878D878D8586
:1025E0009E858C01C8010197F1F78C011E870D872C
:1025F0002E960FB6F894DEBF0FBECDBFDF91CF9100
:102600001F910F9108950F931F93CF93DF93CDB731
:10261000DEB7E8970FB6F894DEBF0FBECDBF88E3F4
:102620000E942A0280E090E0A0E0B0E489839A83CF
:10263000AB83BC8320E030E04AE755E469817A81CE
:102640008B819C810E942D36DC01CB018D839E8382
:10265000AF83B88720E030E040E85FE36D817E81A2
:102660008F8198850E94133888232CF481E090E0B4
:102670009A87898742C020E03FEF4FE757E46D819A
:102680007E818F8198850E94B537181664F520E009
:1026900030E040E251E469817A818B819C810E9423
:1026A0002D36DC01CB01BC01CD010E944834DC0198
:1026B000CB019A87898712C080E991E09C878B873C
:1026C0008B859C858C01C8010197F1F78C011C87D3
:1026D0000B8789859A8501979A87898789859A8545
:1026E000009751F717C06D817E818F8198850E9478
:1026F0004834DC01CB019A87898789859A859E8732
:102700008D878D859E858C01C8010197F1F78C011D
:102710001E870D878CE00E942A0280E090E0A0E0F6
:10272000B0E48F87988BA98BBA8B20E030E04AE722
:1027300055E46F85788989899A890E942D36DC0154
:10274000CB018B8B9C8BAD8BBE8B20E030E040E8C7
:102750005FE36B897C898D899E890E941338882369
:102760002CF481E090E0988F8F8B42C020E03FEF07
:102770004FE757E46B897C898D899E890E94B53724
:10278000181664F520E030E040E251E46F85788966
:1027900089899A890E942D36DC01CB01BC01CD01CB
:1027A0000E944834DC01CB01988F8F8B12C080E9E6
:1027B00091E09A8F898F898D9A8D8C01C80101973C
:1027C000F1F78C011A8F098F8F89988D0197988F57
:1027D0008F8B8F89988D009751F717C06B897C89F3
:1027E0008D899E890E944834DC01CB01988F8F8BA4
:1027F0008F89988D9C8F8B8F8B8D9C8D8C01C801C0
:102800000197F1F78C011C8F0B8F81E00E942A0247
:1028100080E090E0A0E0B0E48D8F9E8FAF8FB8A3F2
:1028200020E030E04AE755E46D8D7E8D8F8D98A1D4
:102830000E942D36DC01CB0189A39AA3ABA3BCA3D4
:1028400020E030E040E85FE369A17AA18BA19CA180
:102850000E94133888232CF481E090E09EA38DA37E
:1028600042C020E03FEF4FE757E469A17AA18BA176
:102870009CA10E94B537181664F520E030E040E2D4
:1028800051E46D8D7E8D8F8D98A10E942D36DC01D7
:10289000CB01BC01CD010E944834DC01CB019EA3D9
:1028A0008DA312C080E991E098A78FA38FA198A56E
:1028B0008C01C8010197F1F78C0118A70FA38DA116
:1028C0009EA101979EA38DA38DA19EA1009751F774
:1028D00017C069A17AA18BA19CA10E944834DC0198
:1028E000CB019EA38DA38DA19EA19AA789A789A59F
:1028F0009AA58C01C8010197F1F78C011AA709A7C5
:1029000086E00E942A0280E090E0A0E0B0E48BA77D
:102910009CA7ADA7BEA720E030E04AE755E46BA531
:102920007CA58DA59EA50E942D36DC01CB018FA72D
:1029300098ABA9ABBAAB20E030E040E85FE36FA50D
:1029400078A989A99AA90E94133888232CF481E0D8
:1029500090E09CAB8BAB42C020E03FEF4FE757E4E9
:102960006FA578A989A99AA90E94B537181664F5A8
:1029700020E030E040E251E46BA57CA58DA59EA54A
:102980000E942D36DC01CB01BC01CD010E944834F0
:10299000DC01CB019CAB8BAB12C080E991E09EAB1C
:1029A0008DAB8DA99EA98C01C8010197F1F78C010F
:1029B0001EAB0DAB8BA99CA901979CAB8BAB8BA9D4
:1029C0009CA9009751F717C06FA578A989A99AA962
:1029D0000E944834DC01CB019CAB8BAB8BA99CA93A
:1029E00098AF8FAB8FA998AD8C01C8010197F1F713
:1029F0008C0118AF0FABE8960FB6F894DEBF0FBE90
:102A0000CDBFDF91CF911F910F910895CF93DF93A9
:102A1000CDB7DEB789E290E027E6FC01208380E9AC
:102A200090E0FC0110828AE290E028E9FC0120831A
:102A300085E990E026E0FC012083DF91CF910895A5
:102A4000CF93DF931F92CDB7DEB7898300008BE26F
:102A500090E0FC018081882F90E080729927009798
:102A6000B1F38CE290E02981FC0120830F90DF918B
:102A7000CF910895CF93DF9300D000D01F92CDB7B0
:102A8000DEB79C838B836D831A82198219C089817A
:102A90009A812B813C81820F931FFC0180818823C6
:102AA000C1F089819A812B813C81820F931FFC01A7
:102AB00080810E94201589819A8101969A83898359
:102AC0008D81282F30E089819A8182179307FCF24B
:102AD00001C000000F900F900F900F900F90DF91AA
:102AE000CF910895CF93DF93CDB7DEB700008BE28F
:102AF00090E0FC0180818823D4F78CE290E0FC0117
:102B00008081DF91CF910895CF93DF931F92CDB74E
:102B1000DEB7898300008BE290E0FC018081882F82
:102B200090E0807299270097B1F38CE290E02981C0
:102B3000FC0120830F90DF91CF910895CF93DF9315
:102B400000D0CDB7DEB79A8389830CC089819A8182
:102B5000FC01208189819A8101969A838983822F41
:102B60000E94841589819A81FC018081882371F7F4
:102B70000F900F90DF91CF910895CF93DF931F9225
:102B8000CDB7DEB78CE290E0FC01808189830F90A5
:102B9000DF91CF9108950F931F93CF93DF93CDB71C
:102BA000DEB7C15AD1090FB6F894DEBF0FBECDBF54
:102BB0009E012F553F4FF90180831A8281E690E0F4
:102BC00021E630E0F90120812160FC01208381E6CB
:102BD00090E021E630E0F90120812260FC012083B1
:102BE00080E88983D2C2CE018F559F4F2981FC0195
:102BF00080818223882351F082E690E022E630E053
:102C0000F90120812160FC01208309C082E690E067
:102C100022E630E0F90120812E7FFC01208380E054
:102C200090E0A0E4B0E48B839C83AD83BE832BEA69
:102C30003AEA4AEA50E46B817C818D819E810E9450
:102C40002D36DC01CB018F839887A987BA8720E0D6
:102C500030E040E85FE36F81788589859A850E943E
:102C6000133888231CF481E08B8797C020E030E084
:102C70004FE753E46F81788589859A850E94B5373F
:102C800018160CF081C020E030E04AE754E46B8174
:102C90007C818D819E810E941237DC01CB018C8763
:102CA0009D87AE87BF8720E030E04AE755E46C851A
:102CB0007D858E859F850E942D36DC01CB01888B1A
:102CC000998BAA8BBB8B20E030E040E85FE36889FA
:102CD00079898A899B890E94133888232CF481E0A2
:102CE00090E09D8B8C8B42C020E03FEF4FE757E494
:102CF000688979898A899B890E94B537181664F595
:102D000020E030E040E251E46C857D858E859F8532
:102D10000E942D36DC01CB01BC01CD010E9448345C
:102D2000DC01CB019D8B8C8B12C080E991E09F8BE5
:102D30008E8B8E899F898C01C8010197F1F78C01D8
:102D40001F8B0E8B8C899D8901979D8B8C8B8C8919
:102D50009D89009751F728C0688979898A899B895C
:102D60000E944834DC01CB019D8B8C8B8C899D8922
:102D7000998F888F888D998D8C01F8013197F1F7A3
:102D80008F01198F088F10C06F81788589859A858A
:102D90000E944834DC01CB018B878B858A8F8A8D1A
:102DA000182F1A95F1F71A8F82E690E022E630E0AC
:102DB000F90120812260FC01208380E090E0A0ECFA
:102DC000B0E48B8F9C8FAD8FBE8F2BEA3AEA4AEA34
:102DD00050E46B8D7C8D8D8D9E8D0E942D36DC0197
:102DE000CB018F8F98A3A9A3BAA320E030E040E8DD
:102DF0005FE36F8D78A189A19AA10E94133888237F
:102E00001CF481E08BA397C020E030E04FE753E44F
:102E10006F8D78A189A19AA10E94B53718160CF080
:102E200081C020E030E04AE754E46B8D7C8D8D8DCD
:102E30009E8D0E941237DC01CB018CA39DA3AEA313
:102E4000BFA320E030E04AE755E46CA17DA18EA14C
:102E50009FA10E942D36DC01CB0188A799A7AAA7C4
:102E6000BBA720E030E040E85FE368A579A58AA52C
:102E70009BA50E94133888232CF481E090E09DA745
:102E80008CA742C020E03FEF4FE757E468A579A543
:102E90008AA59BA50E94B537181664F520E030E09E
:102EA00040E251E46CA17DA18EA19FA10E942D362C
:102EB000DC01CB01BC01CD010E944834DC01CB0117
:102EC0009DA78CA712C080E991E09FA78EA78EA531
:102ED0009FA58C01C8010197F1F78C011FA70EA7D0
:102EE0008CA59DA501979DA78CA78CA59DA5009756
:102EF00051F728C068A579A58AA59BA50E944834EA
:102F0000DC01CB019DA78CA78CA59DA599AB88ABB7
:102F100088A999A98C01F8013197F1F78F0119ABB4
:102F200008AB10C06F8D78A189A19AA10E94483486
:102F3000DC01CB018BA38BA18AAB8AA9182F1A9530
:102F4000F1F71AAB82E690E022E630E0F901208149
:102F50002D7FFC01208380E090E0A0E4B0E48BAB07
:102F60009CABADABBEAB2BEA3AEA4AEA50E46BA9A4
:102F70007CA98DA99EA90E942D36DC01CB018FABC7
:102F800098AFA9AFBAAF20E030E040E85FE36FA9A7
:102F900078AD89AD9AAD0E94133888231CF481E086
:102FA0008BAFDDC020E030E04FE753E46FA978AD90
:102FB00089AD9AAD0E94B53718160CF0C7C020E055
:102FC00030E04AE754E46BA97CA98DA99EA90E9430
:102FD0001237DC01CB018CAF9DAFAEAFBFAF8E011E
:102FE000005C1F4F20E030E04AE755E46CAD7DAD5A
:102FF0008EAD9FAD0E942D36DC01CB01F8018083A0
:103000009183A283B383CE01805C9F4F20E030E0A8
:1030100040E85FE3FC0160817181828193810E94BD
:10302000133888234CF4CE018C5B9F4F21E030E0B5
:10303000FC01318320836CC0CE01805C9F4F20E077
:103040003FEF4FE757E4FC016081718182819381FA
:103050000E94B53718160CF049C020E030E040E27D
:1030600051E46CAD7DAD8EAD9FAD0E942D36DC017F
:10307000CB018E010C5B1F4FBC01CD010E94483477
:10308000DC01CB01F8019183808327C0CE018A5BEC
:103090009F4F20E931E0FC0131832083CE018A5B20
:1030A0009F4FFC01808191818C01C8010197F1F74C
:1030B0008C01CE018A5B9F4FFC0111830083CE01FE
:1030C0008C5B9F4F9E012C5B3F4FF901208131812A
:1030D00021503109FC0131832083CE018C5B9F4F4D
:1030E000FC0180819181009789F64CC08E010C5BB8
:1030F0001F4FCE01805C9F4FFC01608171818281F6
:1031000093810E944834DC01CB01F80191838083D4
:10311000CE01885B9F4F9E012C5B3F4FF9012081C0
:103120003181FC0131832083CE01885B9F4FFC01FC
:10313000808191818C01C8010197F1F78C01CE014A
:10314000885B9F4FFC01118300831CC06FA978AD81
:1031500089AD9AAD0E944834DC01CB018BAFCE0122
:10316000865B9F4F2BADFC012083CE01865B9F4F7A
:10317000FC018081182F1A95F1F7CE01865B9F4FD5
:10318000FC0110838981869589838981882309F0D0
:103190002ACD82E690E022E630E0F90120812E7F00
:1031A000FC0120839E01255B3F4F80E090E0A0E47E
:1031B000B0E4F90180839183A283B3838E01015B24
:1031C0001F4FCE01855B9F4F2BEA3AEA4AEA50E453
:1031D000FC0160817181828193810E942D36DC0126
:1031E000CB01F80180839183A283B383CE01815BFD
:1031F0009F4F20E030E040E85FE3FC016081718197
:10320000828193810E94133888233CF4CE018D5A29
:103210009F4F21E0FC012083F9C0CE01815B9F4FCD
:1032200020E030E04FE753E4FC016081718182814E
:1032300093810E94B53718160CF0D7C0CE01855B7C
:103240009F4F20E030E04AE754E4FC016081718147
:10325000828193810E941237DC01CB019E012C5A9E
:103260003F4FF90180839183A283B3838E01085A73
:103270001F4FCE018C5A9F4F20E030E04AE755E4C3
:10328000FC0160817181828193810E942D36DC0175
:10329000CB01F80180839183A283B383CE01885A46
:1032A0009F4F20E030E040E85FE3FC0160817181E6
:1032B000828193810E94133888234CF4CE01845A72
:1032C0009F4F21E030E0FC013183208370C0CE01AC
:1032D000885A9F4F20E03FEF4FE757E4FC016081A1
:1032E0007181828193810E94B53718160CF04DC010
:1032F000CE018C5A9F4F20E030E040E251E4FC01C7
:1033000060817181828193810E942D36DC01CB0125
:103310008E01045A1F4FBC01CD010E944834DC01CC
:10332000CB01F8019183808327C0CE01825A9F4F41
:1033300020E931E0FC0131832083CE01825A9F4F86
:10334000FC01808191818C01C8010197F1F78C010A
:10335000CE01825A9F4FFC0111830083CE01845A13
:103360009F4F9E01245A3F4FF90120813181215006
:103370003109FC0131832083CE01845A9F4FFC0127
:1033800080819181009789F658C08E01045A1F4FA1
:10339000CE01885A9F4FFC016081718182819381A7
:1033A0000E944834DC01CB01F80191838083CE0177
:1033B000805A9F4F9E01245A3F4FF901208131814D
:1033C000FC0131832083CE01805A9F4FFC01808114
:1033D00091818C01C8010197F1F78C01CE01805ACF
:1033E0009F4FFC011183008328C08E010D5A1F4F8F
:1033F000CE01815B9F4FFC0160817181828193814D
:103400000E944834DC01CB01F8018083CE018E5943
:103410009F4F9E012D5A3F4FF9012081FC012083CF
:10342000CE018E599F4FFC018081182F1A95F1F71C
:10343000CE018E599F4FFC01108382E690E022E678
:1034400030E0F90120812260FC0120839E012D598A
:103450003F4F80E090E0A0E4B0E4F90180839183E5
:10346000A283B3838E0109591F4FCE018D599F4FFF
:103470002BEA3AEA4AEA50E4FC01608171818281D8
:1034800093810E942D36DC01CB01F801808391836A
:10349000A283B383CE0189599F4F20E030E040E8FA
:1034A0005FE3FC0160817181828193810E94133806
:1034B00088233CF4CE0185599F4F21E0FC012083F5
:1034C000F9C0CE0189599F4F20E030E04FE753E427
:1034D000FC0160817181828193810E94B537181649
:1034E0000CF0D7C0CE018D599F4F20E030E04AE765
:1034F00054E4FC0160817181828193810E941237C2
:10350000DC01CB019E0124593F4FF9018083918357
:10351000A283B3838E0100591F4FCE0184599F4F60
:1035200020E030E04AE755E4FC016081718182814E
:1035300093810E942D36DC01CB01F80180839183B9
:10354000A283B383CE0180599F4F20E030E040E852
:103550005FE3FC0160817181828193810E94133855
:1035600088234CF4CE018C589F4F21E030E0FC01C1
:103570003183208370C0CE0180599F4F20E03FEF00
:103580004FE757E4FC0160817181828193810E9441
:10359000B53718160CF04DC0CE0184599F4F20E06E
:1035A00030E040E251E4FC016081718182819381CD
:1035B0000E942D36DC01CB018E010C581F4FBC013F
:1035C000CD010E944834DC01CB01F8019183808356
:1035D00027C0CE018A589F4F20E931E0FC0131839A
:1035E0002083CE018A589F4FFC01808191818C01FC
:1035F000C8010197F1F78C01CE018A589F4FFC0159
:1036000011830083CE018C589F4F9E012C583F4F51
:10361000F9012081318121503109FC01318320835E
:10362000CE018C589F4FFC0180819181009789F6D3
:1036300058C08E010C581F4FCE0180599F4FFC017E
:1036400060817181828193810E944834DC01CB01C9
:10365000F80191838083CE0188589F4F9E012C589A
:103660003F4FF90120813181FC0131832083CE015C
:1036700088589F4FFC01808191818C01C80101977E
:10368000F1F78C01CE0188589F4FFC011183008314
:1036900028C08E0105591F4FCE0189599F4FFC014B
:1036A00060817181828193810E944834DC01CB0169
:1036B000F8018083CE0186589F4F9E0125593F4FC8
:1036C000F9012081FC012083CE0186589F4FFC0127
:1036D0008081182F1A95F1F7CE0186589F4FFC0173
:1036E000108381E690E021E630E0F90120812E7F11
:1036F000FC0120839E0125583F4F80E090E0A0E42C
:10370000B0E4F90180839183A283B3838E010158D1
:103710001F4FCE0185589F4F2BEA3AEA4AEA50E400
:10372000FC0160817181828193810E942D36DC01D0
:10373000CB01F80180839183A283B383CE018158AA
:103740009F4F20E030E040E85FE3FC016081718141
:10375000828193810E94133888233CF4CE018D57D7
:103760009F4F21E0FC012083F9C0CE0181589F4F7B
:1037700020E030E04FE753E4FC01608171818281F9
:1037800093810E94B53718160CF0D7C0CE0185582A
:103790009F4F20E030E04AE754E4FC0160817181F2
:1037A000828193810E941237DC01CB019E012C574C
:1037B0003F4FF90180839183A283B3838E01085721
:1037C0001F4FCE018C579F4F20E030E04AE755E471
:1037D000FC0160817181828193810E942D36DC0120
:1037E000CB01F80180839183A283B383CE018857F4
:1037F0009F4F20E030E040E85FE3FC016081718191
:10380000828193810E94133888234CF4CE0184571F
:103810009F4F21E030E0FC013183208370C0CE0156
:1038200088579F4F20E03FEF4FE757E4FC0160814E
:103830007181828193810E94B53718160CF04DC0BA
:10384000CE018C579F4F20E030E040E251E4FC0174
:1038500060817181828193810E942D36DC01CB01D0
:103860008E0104571F4FBC01CD010E944834DC017A
:10387000CB01F8019183808327C0CE0182579F4FEF
:1038800020E931E0FC0131832083CE0182579F4F34
:10389000FC01808191818C01C8010197F1F78C01B5
:1038A000CE0182579F4FFC0111830083CE018457C4
:1038B0009F4F9E0124573F4FF901208131812150B4
:1038C0003109FC0131832083CE0184579F4FFC01D5
:1038D00080819181009789F658C08E0104571F4F4F
:1038E000CE0188579F4FFC01608171818281938155
:1038F0000E944834DC01CB01F80191838083CE0122
:1039000080579F4F9E0124573F4FF90120813181FD
:10391000FC0131832083CE0180579F4FFC018081C1
:1039200091818C01C8010197F1F78C01CE0180577C
:103930009F4FFC011183008328C08E010D571F4F3C
:10394000CE0181589F4FFC016081718182819381FA
:103950000E944834DC01CB01F8018083CE018E56F1
:103960009F4F9E012D573F4FF9012081FC0120837D
:10397000CE018E569F4FFC018081182F1A95F1F7CA
:10398000CE018E569F4FFC01108380E290E0FC0137
:103990008081882F90E081709927009719F081E04D
:1039A0008A8301C01A8282E690E022E630E0F901C3
:1039B00020812D7FFC0120839E012D563F4F80E00A
:1039C00090E0A8ECB3E4F90180839183A283B383F0
:1039D0008E0109561F4FCE018D569F4F20E030E0DB
:1039E0004AE755E4FC0160817181828193810E94E4
:1039F0002D36DC01CB01F80180839183A283B38350
:103A0000CE0189569F4F20E030E040E85FE3FC01A3
:103A100060817181828193810E94133888234CF4E4
:103A2000CE0185569F4F21E030E0FC013183208399
:103A300070C0CE0189569F4F20E03FEF4FE757E41B
:103A4000FC0160817181828193810E94B5371816D3
:103A50000CF04DC0CE018D569F4F20E030E040E28B
:103A600051E4FC0160817181828193810E942D3635
:103A7000DC01CB018E0105561F4FBC01CD010E9418
:103A80004834DC01CB01F8019183808327C0CE014B
:103A900083569F4F20E931E0FC0131832083CE0122
:103AA00083569F4FFC01808191818C01C801019751
:103AB000F1F78C01CE0183569F4FFC0111830083E7
:103AC000CE0185569F4F9E0125563F4FF90120811B
:103AD000318121503109FC0131832083CE0185568B
:103AE0009F4FFC0180819181009789F62FC08E0144
:103AF00005561F4FCE0189569F4FFC016081718191
:103B0000828193810E944834DC01CB01F8019183CA
:103B10008083CE0181569F4F9E0125563F4FF9016C
:103B200020813181FC0131832083CE0181569F4F5A
:103B3000FC01808191818C01C8010197F1F78C0112
:103B4000CE0181569F4FFC01118300838A81CF559E
:103B5000DF4F0FB6F894DEBF0FBECDBFDF91CF9120
:103B60001F910F9108950F931F93CF93DF93CDB7BC
:103B7000DEB7C35CD1090FB6F894DEBF0FBECDBF70
:103B80009E012D533F4FF90180831A8281E690E018
:103B900021E630E0F90120812160FC01208381E6EB
:103BA00090E021E630E0F90120812260FC012083D1
:103BB00080E090E0A0E4B0E48B839C83AD83BE837F
:103BC0002BEA3AEA4AEA50E46B817C818D819E813E
:103BD0000E942D36DC01CB018F839887A987BA8795
:103BE00020E030E040E85FE36F81788589859A8541
:103BF0000E94133888231CF481E08B8797C020E053
:103C000030E04FE753E46F81788589859A850E947B
:103C1000B53718160CF081C020E030E04AE754E4D4
:103C20006B817C818D819E810E941237DC01CB01EA
:103C30008C879D87AE87BF8720E030E04AE755E458
:103C40006C857D858E859F850E942D36DC01CB019C
:103C5000888B998BAA8BBB8B20E030E040E85FE338
:103C6000688979898A899B890E94133888232CF472
:103C700081E090E09D8B8C8B42C020E03FEF4FE7CE
:103C800057E4688979898A899B890E94B537181613
:103C900064F520E030E040E251E46C857D858E855E
:103CA0009F850E942D36DC01CB01BC01CD010E9415
:103CB0004834DC01CB019D8B8C8B12C080E991E0F4
:103CC0009F8B8E8B8E899F898C01C8010197F1F79C
:103CD0008C011F8B0E8B8C899D8901979D8B8C8B02
:103CE0008C899D89009751F728C0688979898A89CC
:103CF0009B890E944834DC01CB019D8B8C8B8C8985
:103D00009D89998F888F888D998D8C01F8013197C5
:103D1000F1F78F01198F088F10C06F817885898521
:103D20009A850E944834DC01CB018B878B858A8F72
:103D30008A8D182F1A95F1F71A8F82E690E022E605
:103D400030E0F90120812160FC01208380E090E0D7
:103D5000A0E4B0E48B8F9C8FAD8FBE8F2BEA3AEA44
:103D60004AEA50E46B8D7C8D8D8D9E8D0E942D36A0
:103D7000DC01CB018F8F98A3A9A3BAA320E030E088
:103D800040E85FE36F8D78A189A19AA10E94133862
:103D900088231CF481E08BA397C020E030E04FE73C
:103DA00053E46F8D78A189A19AA10E94B5371816A6
:103DB0000CF081C020E030E04AE754E46B8D7C8D4C
:103DC0008D8D9E8D0E941237DC01CB018CA39DA3AB
:103DD000AEA3BFA320E030E04AE755E46CA17DA18B
:103DE0008EA19FA10E942D36DC01CB0188A799A747
:103DF000AAA7BBA720E030E040E85FE368A579A56B
:103E00008AA59BA50E94133888232CF481E090E0BA
:103E10009DA78CA742C020E03FEF4FE757E468A57D
:103E200079A58AA59BA50E94B537181664F520E0F0
:103E300030E040E251E46CA17DA18EA19FA10E94DF
:103E40002D36DC01CB01BC01CD010E944834DC01E0
:103E5000CB019DA78CA712C080E991E09FA78EA7F8
:103E60008EA59FA58C01C8010197F1F78C011FA7B2
:103E70000EA78CA59DA501979DA78CA78CA59DA598
:103E8000009751F728C068A579A58AA59BA50E942F
:103E90004834DC01CB019DA78CA78CA59DA599ABCF
:103EA00088AB88A999A98C01F8013197F1F78F01A6
:103EB00019AB08AB10C06F8D78A189A19AA10E949F
:103EC0004834DC01CB018BA38BA18AAB8AA9182FC4
:103ED0001A95F1F71AAB81E690E021E630E0F9019E
:103EE00020812E7FFC01208380E8898385C282E6C1
:103EF00090E022E630E0F90120812260FC0120837D
:103F000080E090E0A0E4B0E48BAB9CABADABBEAB8B
:103F10002BEA3AEA4AEA50E46BA97CA98DA99EA94A
:103F20000E942D36DC01CB018FAB98AFA9AFBAAFA1
:103F300020E030E040E85FE36FA978AD89AD9AAD4D
:103F40000E94133888231CF481E08BAFDDC020E091
:103F500030E04FE753E46FA978AD89AD9AAD0E9488
:103F6000B53718160CF0C7C020E030E04AE754E43B
:103F70006BA97CA98DA99EA90E941237DC01CB01F7
:103F80008CAF9DAFAEAFBFAF8E01005C1F4F20E086
:103F900030E04AE755E46CAD7DAD8EAD9FAD0E943B
:103FA0002D36DC01CB01F80180839183A283B3839A
:103FB000CE01805C9F4F20E030E040E85FE3FC01F1
:103FC00060817181828193810E94133888234CF42F
:103FD000CE018C5B9F4F21E030E0FC0131832083D8
:103FE0006CC0CE01805C9F4F20E03FEF4FE757E46D
:103FF000FC0160817181828193810E94B53718161E
:104000000CF049C020E030E040E251E46CAD7DAD01
:104010008EAD9FAD0E942D36DC01CB018E010C5B75
:104020001F4FBC01CD010E944834DC01CB01F801D7
:104030009183808327C0CE018A5B9F4F20E931E0C6
:10404000FC0131832083CE018A5B9F4FFC0180817C
:1040500091818C01C8010197F1F78C01CE018A5B37
:104060009F4FFC0111830083CE018C5B9F4F9E010B
:104070002C5B3F4FF9012081318121503109FC0136
:1040800031832083CE018C5B9F4FFC018081918125
:10409000009789F64CC08E010C5B1F4FCE01805CEF
:1040A0009F4FFC0160817181828193810E9448341D
:1040B000DC01CB01F80191838083CE01885B9F4FA7
:1040C0009E012C5B3F4FF90120813181FC0131833E
:1040D0002083CE01885B9F4FFC01808191818C0100
:1040E000C8010197F1F78C01CE01885B9F4FFC015D
:1040F000118300831CC06FA978AD89AD9AAD0E9471
:104100004834DC01CB018BAFCE01865B9F4F2BADDA
:10411000FC012083CE01865B9F4FFC018081182F1C
:104120001A95F1F7CE01865B9F4FFC01108380E268
:1041300090E0FC018081882F90E0817099270097A2
:1041400021F09A818981892B8A8382E690E022E698
:1041500030E0F90120812D7FFC0120839E01255B49
:104160003F4F80E090E0A0E4B0E4F90180839183C8
:10417000A283B3838E01015B1F4FCE01855B9F4FEE
:104180002BEA3AEA4AEA50E4FC01608171818281BB
:1041900093810E942D36DC01CB01F801808391834D
:1041A000A283B383CE01815B9F4F20E030E040E8E3
:1041B0005FE3FC0160817181828193810E941338E9
:1041C00088233CF4CE018D5A9F4F21E0FC012083CF
:1041D000F9C0CE01815B9F4F20E030E04FE753E410
:1041E000FC0160817181828193810E94B53718162C
:1041F0000CF0D7C0CE01855B9F4F20E030E04AE74E
:1042000054E4FC0160817181828193810E941237A4
:10421000DC01CB019E012C5A3F4FF9018083918331
:10422000A283B3838E01085A1F4FCE018C5A9F4F31
:1042300020E030E04AE755E4FC0160817181828131
:1042400093810E942D36DC01CB01F801808391839C
:10425000A283B383CE01885A9F4F20E030E040E82C
:104260005FE3FC0160817181828193810E94133838
:1042700088234CF4CE01845A9F4F21E030E0FC01AA
:104280003183208370C0CE01885A9F4F20E03FEFDA
:104290004FE757E4FC0160817181828193810E9424
:1042A000B53718160CF04DC0CE018C5A9F4F20E048
:1042B00030E040E251E4FC016081718182819381B0
:1042C0000E942D36DC01CB018E01045A1F4FBC0128
:1042D000CD010E944834DC01CB01F8019183808339
:1042E00027C0CE01825A9F4F20E931E0FC01318383
:1042F0002083CE01825A9F4FFC01808191818C01E5
:10430000C8010197F1F78C01CE01825A9F4FFC0141
:1043100011830083CE01845A9F4F9E01245A3F4F40
:10432000F9012081318121503109FC013183208341
:10433000CE01845A9F4FFC0180819181009789F6BC
:1043400058C08E01045A1F4FCE01885A9F4FFC015E
:1043500060817181828193810E944834DC01CB01AC
:10436000F80191838083CE01805A9F4F9E01245A89
:104370003F4FF90120813181FC0131832083CE013F
:10438000805A9F4FFC01808191818C01C801019767
:10439000F1F78C01CE01805A9F4FFC0111830083FD
:1043A00028C08E010D5A1F4FCE01815B9F4FFC012B
:1043B00060817181828193810E944834DC01CB014C
:1043C000F8018083CE018E599F4F9E012D5A3F4F99
:1043D000F9012081FC012083CE018E599F4FFC0101
:1043E0008081182F1A95F1F7CE018E599F4FFC014D
:1043F00010838981869589838981882309F077CD07
:1044000081E690E021E630E0F90120812160FC01A5
:1044100020839E012D593F4F80E090E0A0E4B0E45E
:10442000F90180839183A283B3838E0109591F4FC1
:10443000CE018D599F4F2BEA3AEA4AEA50E4FC013B
:1044400060817181828193810E942D36DC01CB01D4
:10445000F80180839183A283B383CE0189599F4F52
:1044600020E030E040E85FE3FC01608171818281FF
:1044700093810E94133888233CF4CE0185599F4FC5
:1044800021E0FC012083F9C0CE0189599F4F20E033
:1044900030E04FE753E4FC016081718182819381B8
:1044A0000E94B53718160CF0D7C0CE018D599F4F1A
:1044B00020E030E04AE754E4FC01608171818281B0
:1044C00093810E941237DC01CB019E0124593F4F9A
:1044D000F90180839183A283B3838E0100591F4F1A
:1044E000CE0184599F4F20E030E04AE755E4FC01BB
:1044F00060817181828193810E942D36DC01CB0124
:10450000F80180839183A283B383CE0180599F4FAA
:1045100020E030E040E85FE3FC016081718182814E
:1045200093810E94133888234CF4CE018C589F4FFE
:1045300021E030E0FC013183208370C0CE0180593E
:104540009F4F20E03FEF4FE757E4FC01608171810E
:10455000828193810E94B53718160CF04DC0CE01B0
:1045600084599F4F20E030E040E251E4FC0160813B
:104570007181828193810E942D36DC01CB018E01F5
:104580000C581F4FBC01CD010E944834DC01CB0107
:10459000F8019183808327C0CE018A589F4F20E97C
:1045A00031E0FC0131832083CE018A589F4FFC010A
:1045B000808191818C01C8010197F1F78C01CE01B6
:1045C0008A589F4FFC0111830083CE018C589F4F66
:1045D0009E012C583F4FF901208131812150310932
:1045E000FC0131832083CE018C589F4FFC018081D8
:1045F0009181009789F658C08E010C581F4FCE014B
:1046000080599F4FFC0160817181828193810E945A
:104610004834DC01CB01F80191838083CE018858B6
:104620009F4F9E012C583F4FF90120813181FC01A1
:1046300031832083CE0188589F4FFC018081918176
:104640008C01C8010197F1F78C01CE0188589F4F6A
:10465000FC011183008328C08E0105591F4FCE0134
:1046600089599F4FFC0160817181828193810E94F1
:104670004834DC01CB01F8018083CE0186589F4F7E
:104680009E0125593F4FF9012081FC012083CE0175
:1046900086589F4FFC018081182F1A95F1F7CE01A3
:1046A00086589F4FFC011083CE018D539F4FFC0114
:1046B0008081882351F082E690E022E630E0F90123
:1046C00020812E7FFC01208309C082E690E022E653
:1046D00030E0F90120812160FC0120839E012558F2
:1046E0003F4F80E090E0A0E4B0E4F9018083918343
:1046F000A283B3838E0101581F4FCE0185589F4F6F
:104700002BEA3AEA4AEA50E4FC0160817181828135
:1047100093810E942D36DC01CB01F80180839183C7
:10472000A283B383CE0181589F4F20E030E040E860
:104730005FE3FC0160817181828193810E94133863
:1047400088233CF4CE018D579F4F21E0FC0120834C
:10475000F9C0CE0181589F4F20E030E04FE753E48D
:10476000FC0160817181828193810E94B5371816A6
:104770000CF0D7C0CE0185589F4F20E030E04AE7CB
:1047800054E4FC0160817181828193810E9412371F
:10479000DC01CB019E012C573F4FF90180839183AF
:1047A000A283B3838E0108571F4FCE018C579F4FB2
:1047B00020E030E04AE755E4FC01608171818281AC
:1047C00093810E942D36DC01CB01F8018083918317
:1047D000A283B383CE0188579F4F20E030E040E8AA
:1047E0005FE3FC0160817181828193810E941338B3
:1047F00088234CF4CE0184579F4F21E030E0FC0128
:104800003183208370C0CE0188579F4F20E03FEF57
:104810004FE757E4FC0160817181828193810E949E
:10482000B53718160CF04DC0CE018C579F4F20E0C5
:1048300030E040E251E4FC0160817181828193812A
:104840000E942D36DC01CB018E0104571F4FBC01A5
:10485000CD010E944834DC01CB01F80191838083B3
:1048600027C0CE0182579F4F20E931E0FC01318300
:104870002083CE0182579F4FFC01808191818C0162
:10488000C8010197F1F78C01CE0182579F4FFC01BF
:1048900011830083CE0184579F4F9E0124573F4FC1
:1048A000F9012081318121503109FC0131832083BC
:1048B000CE0184579F4FFC0180819181009789F63A
:1048C00058C08E0104571F4FCE0188579F4FFC01DF
:1048D00060817181828193810E944834DC01CB0127
:1048E000F80191838083CE0180579F4F9E0124570A
:1048F0003F4FF90120813181FC0131832083CE01BA
:1049000080579F4FFC01808191818C01C8010197E4
:10491000F1F78C01CE0180579F4FFC01118300837A
:1049200028C08E010D571F4FCE0181589F4FFC01AB
:1049300060817181828193810E944834DC01CB01C6
:10494000F8018083CE018E569F4F9E012D573F4F19
:10495000F9012081FC012083CE018E569F4FFC017E
:104960008081182F1A95F1F7CE018E569F4FFC01CA
:10497000108382E690E022E630E0F9012081226097
:10498000FC0120839E012D563F4F80E090E0A0EC7B
:10499000B0E4F90180839183A283B3838E01095629
:1049A0001F4FCE018D569F4F2BEA3AEA4AEA50E458
:1049B000FC0160817181828193810E942D36DC012E
:1049C000CB01F80180839183A283B383CE01895602
:1049D0009F4F20E030E040E85FE3FC01608171819F
:1049E000828193810E94133888233CF4CE0185563E
:1049F0009F4F21E0FC012083F9C0CE0189569F4FD3
:104A000020E030E04FE753E4FC0160817181828156
:104A100093810E94B53718160CF0D7C0CE018D5681
:104A20009F4F20E030E04AE754E4FC01608171814F
:104A3000828193810E941237DC01CB019E012456B2
:104A40003F4FF90180839183A283B3838E01005687
:104A50001F4FCE0184569F4F20E030E04AE755E4D7
:104A6000FC0160817181828193810E942D36DC017D
:104A7000CB01F80180839183A283B383CE0180565A
:104A80009F4F20E030E040E85FE3FC0160817181EE
:104A9000828193810E94133888234CF4CE018C5577
:104AA0009F4F21E030E0FC013183208370C0CE01B4
:104AB00080569F4F20E03FEF4FE757E4FC016081B5
:104AC0007181828193810E94B53718160CF04DC018
:104AD000CE0184569F4F20E030E040E251E4FC01DB
:104AE00060817181828193810E942D36DC01CB012E
:104AF0008E010C551F4FBC01CD010E944834DC01D2
:104B0000CB01F8019183808327C0CE018A559F4F46
:104B100020E931E0FC0131832083CE018A559F4F8B
:104B2000FC01808191818C01C8010197F1F78C0112
:104B3000CE018A559F4FFC0111830083CE018C5515
:104B40009F4F9E012C553F4FF9012081318121500B
:104B50003109FC0131832083CE018C559F4FFC012C
:104B600080819181009789F658C08E010C551F4FA6
:104B7000CE0180569F4FFC016081718182819381BB
:104B80000E944834DC01CB01F80191838083CE017F
:104B900088559F4F9E012C553F4FF901208131814F
:104BA000FC0131832083CE0188559F4FFC01808119
:104BB00091818C01C8010197F1F78C01CE018855D4
:104BC0009F4FFC011183008328C08E0105561F4FA3
:104BD000CE0189569F4FFC01608171818281938152
:104BE0000E944834DC01CB01F8018083CE01865558
:104BF0009F4F9E0125563F4FF9012081FC012083E4
:104C0000CE0186559F4FFC018081182F1A95F1F730
:104C1000CE0186559F4FFC01108382E690E022E68C
:104C200030E0F90120812D7FFC0120839E01255574
:104C30003F4F80E090E0A0E4B0E4F90180839183ED
:104C4000A283B3838E0101551F4FCE0185559F4F1F
:104C50002BEA3AEA4AEA50E4FC01608171818281E0
:104C600093810E942D36DC01CB01F8018083918372
:104C7000A283B383CE0181559F4F20E030E040E80E
:104C80005FE3FC0160817181828193810E9413380E
:104C900088233CF4CE018D549F4F21E0FC012083FA
:104CA000F9C0CE0181559F4F20E030E04FE753E43B
:104CB000FC0160817181828193810E94B537181651
:104CC0000CF0D7C0CE0185559F4F20E030E04AE779
:104CD00054E4FC0160817181828193810E941237CA
:104CE000DC01CB019E012C543F4FF901808391835D
:104CF000A283B3838E0108541F4FCE018C549F4F63
:104D000020E030E04AE755E4FC0160817181828156
:104D100093810E942D36DC01CB01F80180839183C1
:104D2000A283B383CE0188549F4F20E030E040E857
:104D30005FE3FC0160817181828193810E9413385D
:104D400088234CF4CE0184549F4F21E030E0FC01D5
:104D50003183208370C0CE0188549F4F20E03FEF05
:104D60004FE757E4FC0160817181828193810E9449
:104D7000B53718160CF04DC0CE018C549F4F20E073
:104D800030E040E251E4FC016081718182819381D5
:104D90000E942D36DC01CB018E0104541F4FBC0153
:104DA000CD010E944834DC01CB01F801918380835E
:104DB00027C0CE0182549F4F20E931E0FC013183AE
:104DC0002083CE0182549F4FFC01808191818C0110
:104DD000C8010197F1F78C01CE0182549F4FFC016D
:104DE00011830083CE0184549F4F9E0124543F4F72
:104DF000F9012081318121503109FC013183208367
:104E0000CE0184549F4FFC0180819181009789F6E7
:104E100058C08E0104541F4FCE0188549F4FFC018F
:104E200060817181828193810E944834DC01CB01D1
:104E3000F80191838083CE0180549F4F9E012454BA
:104E40003F4FF90120813181FC0131832083CE0164
:104E500080549F4FFC01808191818C01C801019792
:104E6000F1F78C01CE0180549F4FFC011183008328
:104E700028C08E010D541F4FCE0181559F4FFC015C
:104E800060817181828193810E944834DC01CB0171
:104E9000F8018083CE018E539F4F9E012D543F4FCA
:104EA000F9012081FC012083CE018E539F4FFC012C
:104EB0008081182F1A95F1F7CE018E539F4FFC0178
:104EC000108382E690E022E630E0F9012081216043
:104ED000FC0120838A81CD53DF4F0FB6F894DEBFEB
:104EE0000FBECDBFDF91CF911F910F9108950F930A
:104EF0001F93CF93DF93CDB7DEB7C059D1090FB65B
:104F0000F894DEBF0FBECDBF81E690E021E630E031
:104F1000F90120812160FC01208381E690E021E6F7
:104F200030E0F90120812260FC01208382E690E0DC
:104F300022E630E0F90120812160FC01208382E635
:104F400090E022E630E0F90120812D7FFC012083F2
:104F500080E090E0A0E4B0E489839A83AB83BC83D3
:104F60002BEA3AEA4AEA50E469817A818B819C8192
:104F70000E942D36DC01CB018D839E83AF83B887E1
:104F800020E030E040E85FE36D817E818F8198858D
:104F90000E94133888231CF481E0898797C020E0A1
:104FA00030E04FE753E46D817E818F8198850E94C8
:104FB000B53718160CF081C020E030E04AE754E421
:104FC00069817A818B819C810E941237DC01CB013F
:104FD0008A879B87AC87BD8720E030E04AE755E4AD
:104FE0006A857B858C859D850E942D36DC01CB01F1
:104FF0008E879F87A88BB98B20E030E040E85FE385
:105000006E857F85888999890E94133888232CF4BE
:1050100081E090E09B8B8A8B42C020E03FEF4FE71E
:1050200057E46E857F85888999890E94B53718165F
:1050300064F520E030E040E251E46A857B858C85B0
:105040009D850E942D36DC01CB01BC01CD010E9463
:105050004834DC01CB019B8B8A8B12C080E991E044
:105060009D8B8C8B8C899D898C01C8010197F1F7F0
:105070008C011D8B0C8B8A899B8901979B8B8A8B5A
:105080008A899B89009751F728C06E857F8588891A
:1050900099890E944834DC01CB019B8B8A8B8A89D9
:1050A0009B899F8B8E8B8E899F898C01F80131970C
:1050B000F1F78F011F8B0E8B10C06D817E818F8168
:1050C00098850E944834DC01CB0189878985888FC7
:1050D000888D182F1A95F1F7188F82E690E022E656
:1050E00030E0F90120812260FC01208380E090E023
:1050F000A0E4B0E4898F9A8FAB8FBC8F2BEA3AEA99
:105100004AEA50E4698D7A8D8B8D9C8D0E942D36F4
:10511000DC01CB018D8F9E8FAF8FB8A320E030E0F4
:1051200040E85FE36D8D7E8D8F8D98A10E941338CE
:1051300088231CF481E089A397C020E030E04FE78A
:1051400053E46D8D7E8D8F8D98A10E94B537181612
:105150000CF081C020E030E04AE754E4698D7A8D9C
:105160008B8D9C8D0E941237DC01CB018AA39BA3FF
:10517000ACA3BDA320E030E04AE755E46AA17BA1DF
:105180008CA19DA10E942D36DC01CB018EA39FA393
:10519000A8A7B9A720E030E040E85FE36EA17FA1B7
:1051A00088A599A50E94133888232CF481E090E00B
:1051B0009BA78AA742C020E03FEF4FE757E46EA1CC
:1051C0007FA188A599A50E94B537181664F520E03F
:1051D00030E040E251E46AA17BA18CA19DA10E9434
:1051E0002D36DC01CB01BC01CD010E944834DC012D
:1051F000CB019BA78AA712C080E991E09DA78CA74D
:105200008CA59DA58C01C8010197F1F78C011DA704
:105210000CA78AA59BA501979BA78AA78AA59BA5F2
:10522000009751F728C06EA17FA188A599A50E947B
:105230004834DC01CB019BA78AA78AA59BA59FA721
:105240008EA78EA59FA58C01F8013197F1F78F01EC
:105250001FA70EA710C06D8D7E8D8F8D98A10E9407
:105260004834DC01CB0189A389A188AB88A9182F18
:105270001A95F1F718AB82E690E022E630E0F901EA
:1052800020812E7FFC01208380E090E0A0E4B0E448
:1052900089AB9AABABABBCAB2BEA3AEA4AEA50E437
:1052A00069A97AA98BA99CA90E942D36DC01CB01A2
:1052B0008DAB9EABAFABB8AF20E030E040E85FE332
:1052C0006DA97EA98FA998AD0E94133888231CF47C
:1052D00081E089AFDAC020E030E04FE753E46DA908
:1052E0007EA98FA998AD0E94B53718160CF0C4C0DE
:1052F00020E030E04AE754E469A97AA98BA99CA987
:105300000E941237DC01CB018AAF9BAFACAFBDAFBF
:105310008E01025C1F4F20E030E04AE755E46AADA1
:105320007BAD8CAD9DAD0E942D36DC01CB01F8012B
:1053300080839183A283B383CE01CE9620E030E0B8
:1053400040E85FE3FC0160817181828193810E946A
:10535000133888234CF4CE018E5B9F4F21E030E060
:10536000FC01318320836AC0CE01CE9620E03FEF5E
:105370004FE757E4FC0160817181828193810E9433
:10538000B53718160CF049C020E030E040E251E497
:105390006AAD7BAD8CAD9DAD0E942D36DC01CB019D
:1053A0008E010E5B1F4FBC01CD010E944834DC0111
:1053B000CB01F8019183808327C0CE018C5B9F4F86
:1053C00020E931E0FC0131832083CE018C5B9F4FCB
:1053D000FC01808191818C01C8010197F1F78C015A
:1053E000CE018C5B9F4FFC0111830083CE018E5B4D
:1053F0009F4F9E012E5B3F4FF9012081318121504B
:105400003109FC0131832083CE018E5B9F4FFC016B
:1054100080819181009789F64BC08E010E5B1F4FF2
:10542000CE01CE96FC0160817181828193810E94C0
:105430004834DC01CB01F80191838083CE018A5B83
:105440009F4F9E012E5B3F4FF90120813181FC016E
:1054500031832083CE018A5B9F4FFC018081918143
:105460008C01C8010197F1F78C01CE018A5B9F4F37
:10547000FC01118300831CC06DA97EA98FA998AD82
:105480000E944834DC01CB0189AFCE01885B9F4F7D
:1054900029ADFC012083CE01885B9F4FFC018081F8
:1054A000182F1A95F1F7CE01885B9F4FFC011083EE
:1054B00082E690E022E630E0F90120812D7FFC01B8
:1054C00020839E01275B3F4F80E090E0A0ECB0E49A
:1054D000F90180839183A283B3838E01035B1F4F05
:1054E000CE01875B9F4F2BEA3AEA4AEA50E4FC017F
:1054F00060817181828193810E942D36DC01CB0114
:10550000F80180839183A283B383CE01835B9F4F95
:1055100020E030E040E85FE3FC016081718182813E
:1055200093810E94133888233CF4CE018F5A9F4FF9
:1055300021E0FC012083F9C0CE01835B9F4F20E076
:1055400030E04FE753E4FC016081718182819381F7
:105550000E94B53718160CF0D7C0CE01875B9F4F5D
:1055600020E030E04AE754E4FC01608171818281EF
:1055700093810E941237DC01CB019E012E5A3F4FCE
:10558000F90180839183A283B3838E010A5A1F4F4E
:10559000CE018E5A9F4F20E030E04AE755E4FC01EF
:1055A00060817181828193810E942D36DC01CB0163
:1055B000F80180839183A283B383CE018A5A9F4FDF
:1055C00020E030E040E85FE3FC016081718182818E
:1055D00093810E94133888234CF4CE01865A9F4F42
:1055E00021E030E0FC013183208370C0CE018A5A73
:1055F0009F4F20E03FEF4FE757E4FC01608171814E
:10560000828193810E94B53718160CF04DC0CE01EF
:105610008E5A9F4F20E030E040E251E4FC0160816F
:105620007181828193810E942D36DC01CB018E0134
:10563000065A1F4FBC01CD010E944834DC01CB014A
:10564000F8019183808327C0CE01845A9F4F20E9BF
:1056500031E0FC0131832083CE01845A9F4FFC014D
:10566000808191818C01C8010197F1F78C01CE01F5
:10567000845A9F4FFC0111830083CE01865A9F4FAD
:105680009E01265A3F4FF901208131812150310975
:10569000FC0131832083CE01865A9F4FFC0180811B
:1056A0009181009789F658C08E01065A1F4FCE018E
:1056B0008A5A9F4FFC0160817181828193810E948F
:1056C0004834DC01CB01F80191838083CE01825AFA
:1056D0009F4F9E01265A3F4FF90120813181FC01E5
:1056E00031832083CE01825A9F4FFC0180819181BA
:1056F0008C01C8010197F1F78C01CE01825A9F4FAE
:10570000FC011183008328C08E010F5A1F4FCE0168
:10571000835B9F4FFC0160817181828193810E9434
:105720004834DC01CB01F8018083CE01805A9F4FC1
:105730009E012F5A3F4FF9012081FC012083CE01A9
:10574000805A9F4FFC018081182F1A95F1F7CE01E6
:10575000805A9F4FFC01108382E690E022E630E001
:10576000F90120812260FC0120839E012F593F4FC7
:1057700080E090E0A0E4B0E4F90180839183A2830B
:10578000B3838E010B591F4FCE018F599F4F2BEAC8
:105790003AEA4AEA50E4FC01608171818281938196
:1057A0000E942D36DC01CB01F80180839183A28316
:1057B000B383CE018B599F4F20E030E040E85FE398
:1057C000FC0160817181828193810E94133888235A
:1057D0003CF4CE0187599F4F21E0FC012083F9C0A2
:1057E000CE018B599F4F20E030E04FE753E4FC019E
:1057F00060817181828193810E94B53718160CF007
:10580000D7C0CE018F599F4F20E030E04AE754E4E3
:10581000FC0160817181828193810E941237DC01D9
:10582000CB019E0126593F4FF90180839183A283CA
:10583000B3838E0102591F4FCE0186599F4F20E03E
:1058400030E04AE755E4FC016081718182819381F7
:105850000E942D36DC01CB01F80180839183A28365
:10586000B383CE0182599F4F20E030E040E85FE3F0
:10587000FC0160817181828193810E9413388823A9
:105880004CF4CE018E589F4F21E030E0FC01318373
:10589000208370C0CE0182599F4F20E03FEF4FE739
:1058A00057E4FC0160817181828193810E94B53748
:1058B00018160CF04DC0CE0186599F4F20E030E005
:1058C00040E251E4FC0160817181828193810E94F8
:1058D0002D36DC01CB018E010E581F4FBC01CD01CE
:1058E0000E944834DC01CB01F8019183808327C0FA
:1058F000CE018C589F4F20E931E0FC013183208399
:10590000CE018C589F4FFC01808191818C01C80190
:105910000197F1F78C01CE018C589F4FFC01118348
:105920000083CE018E589F4F9E012E583F4FF901A4
:105930002081318121503109FC0131832083CE0146
:105940008E589F4FFC0180819181009789F658C045
:105950008E010E581F4FCE0182599F4FFC0160816E
:105960007181828193810E944834DC01CB01F8016E
:1059700091838083CE018A589F4F9E012E583F4FBE
:10598000F90120813181FC0131832083CE018A58C5
:105990009F4FFC01808191818C01C8010197F1F733
:1059A0008C01CE018A589F4FFC011183008328C0CF
:1059B0008E0107591F4FCE018B599F4FFC0160810B
:1059C0007181828193810E944834DC01CB01F8010E
:1059D0008083CE0188589F4F9E0127593F4FF90180
:1059E0002081FC012083CE0188589F4FFC018081DB
:1059F000182F1A95F1F7CE0188589F4FFC0110839C
:105A000082E690E022E630E0F90120812160FC018D
:105A100020839E0127583F4F80E090E0A0E4B0E44F
:105A2000F90180839183A283B3838E0103581F4FB2
:105A3000CE0187589F4F2BEA3AEA4AEA50E4FC012C
:105A400060817181828193810E942D36DC01CB01BE
:105A5000F80180839183A283B383CE0183589F4F43
:105A600020E030E040E85FE3FC01608171818281E9
:105A700093810E94133888233CF4CE018F579F4FA7
:105A800021E0FC012083F9C0CE0183589F4F20E024
:105A900030E04FE753E4FC016081718182819381A2
:105AA0000E94B53718160CF0D7C0CE0187589F4F0B
:105AB00020E030E04AE754E4FC016081718182819A
:105AC00093810E941237DC01CB019E012E573F4F7C
:105AD000F90180839183A283B3838E010A571F4FFC
